{
  "_format": "hh-sol-artifact-1",
  "contractName": "Nft",
  "sourceName": "contracts/Nft.sol",
  "abi": [
    {
      "inputs": [],
      "name": "getDescription",
      "outputs": [
        {
          "internalType": "string",
          "name": "",
          "type": "string"
        }
      ],
      "stateMutability": "view",
      "type": "function"
    },
    {
      "inputs": [],
      "name": "getName",
      "outputs": [
        {
          "internalType": "string",
          "name": "",
          "type": "string"
        }
      ],
      "stateMutability": "view",
      "type": "function"
    },
    {
      "inputs": [
        {
          "internalType": "string",
          "name": "_description",
          "type": "string"
        }
      ],
      "name": "setDescription",
      "outputs": [],
      "stateMutability": "nonpayable",
      "type": "function"
    },
    {
      "inputs": [
        {
          "internalType": "string",
          "name": "_name",
          "type": "string"
        }
      ],
      "name": "setName",
      "outputs": [],
      "stateMutability": "nonpayable",
      "type": "function"
    }
  ],
  "bytecode": "0x608060405234801561001057600080fd5b506105a4806100206000396000f3fe608060405234801561001057600080fd5b506004361061004c5760003560e01c806317d7de7c146100515780631a0925411461006f57806390c3f38f1461008d578063c47f0027146100a9575b600080fd5b6100596100c5565b6040516100669190610359565b60405180910390f35b610077610157565b6040516100849190610359565b60405180910390f35b6100a760048036038101906100a291906104c4565b6101e9565b005b6100c360048036038101906100be91906104c4565b610203565b005b6060600080546100d49061053c565b80601f01602080910402602001604051908101604052809291908181526020018280546101009061053c565b801561014d5780601f106101225761010080835404028352916020019161014d565b820191906000526020600020905b81548152906001019060200180831161013057829003601f168201915b5050505050905090565b6060600180546101669061053c565b80601f01602080910402602001604051908101604052809291908181526020018280546101929061053c565b80156101df5780601f106101b4576101008083540402835291602001916101df565b820191906000526020600020905b8154815290600101906020018083116101c257829003601f168201915b5050505050905090565b80600190805190602001906101ff92919061021d565b5050565b806000908051906020019061021992919061021d565b5050565b8280546102299061053c565b90600052602060002090601f01602090048101928261024b5760008555610292565b82601f1061026457805160ff1916838001178555610292565b82800160010185558215610292579182015b82811115610291578251825591602001919060010190610276565b5b50905061029f91906102a3565b5090565b5b808211156102bc5760008160009055506001016102a4565b5090565b600081519050919050565b600082825260208201905092915050565b60005b838110156102fa5780820151818401526020810190506102df565b83811115610309576000848401525b50505050565b6000601f19601f8301169050919050565b600061032b826102c0565b61033581856102cb565b93506103458185602086016102dc565b61034e8161030f565b840191505092915050565b600060208201905081810360008301526103738184610320565b905092915050565b6000604051905090565b600080fd5b600080fd5b600080fd5b600080fd5b7f4e487b7100000000000000000000000000000000000000000000000000000000600052604160045260246000fd5b6103d18261030f565b810181811067ffffffffffffffff821117156103f0576103ef610399565b5b80604052505050565b600061040361037b565b905061040f82826103c8565b919050565b600067ffffffffffffffff82111561042f5761042e610399565b5b6104388261030f565b9050602081019050919050565b82818337600083830152505050565b600061046761046284610414565b6103f9565b90508281526020810184848401111561048357610482610394565b5b61048e848285610445565b509392505050565b600082601f8301126104ab576104aa61038f565b5b81356104bb848260208601610454565b91505092915050565b6000602082840312156104da576104d9610385565b5b600082013567ffffffffffffffff8111156104f8576104f761038a565b5b61050484828501610496565b91505092915050565b7f4e487b7100000000000000000000000000000000000000000000000000000000600052602260045260246000fd5b6000600282049050600182168061055457607f821691505b602082108114156105685761056761050d565b5b5091905056fea26469706673582212206ea168905952ebc1b6dba731316e090eece4b284c98340f5454902146fc5b41164736f6c63430008090033",
  "linkReferences": {},
  "deployedLinkReferences": {}
}